{
  "_format": "hh-sol-artifact-1",
  "contractName": "Cryptokitties",
  "sourceName": "contracts/CryptoKitties.sol",
  "abi": [
    {
      "inputs": [
        {
          "internalType": "string",
          "name": "_name",
          "type": "string"
        },
        {
          "internalType": "string",
          "name": "_symbol",
          "type": "string"
        },
        {
          "internalType": "string",
          "name": "_tokenURIBase",
          "type": "string"
        }
      ],
      "stateMutability": "nonpayable",
      "type": "constructor"
    },
    {
      "anonymous": false,
      "inputs": [
        {
          "indexed": true,
          "internalType": "address",
          "name": "_owner",
          "type": "address"
        },
        {
          "indexed": true,
          "internalType": "address",
          "name": "_approved",
          "type": "address"
        },
        {
          "indexed": true,
          "internalType": "uint256",
          "name": "_tokenId",
          "type": "uint256"
        }
      ],
      "name": "Approval",
      "type": "event"
    },
    {
      "anonymous": false,
      "inputs": [
        {
          "indexed": true,
          "internalType": "address",
          "name": "_owner",
          "type": "address"
        },
        {
          "indexed": true,
          "internalType": "address",
          "name": "_operator",
          "type": "address"
        },
        {
          "indexed": false,
          "internalType": "bool",
          "name": "_approved",
          "type": "bool"
        }
      ],
      "name": "ApprovalForAll",
      "type": "event"
    },
    {
      "anonymous": false,
      "inputs": [
        {
          "indexed": true,
          "internalType": "address",
          "name": "_from",
          "type": "address"
        },
        {
          "indexed": true,
          "internalType": "address",
          "name": "_to",
          "type": "address"
        },
        {
          "indexed": true,
          "internalType": "uint256",
          "name": "_tokenId",
          "type": "uint256"
        }
      ],
      "name": "Transfer",
      "type": "event"
    },
    {
      "inputs": [],
      "name": "admin",
      "outputs": [
        {
          "internalType": "address",
          "name": "",
          "type": "address"
        }
      ],
      "stateMutability": "view",
      "type": "function"
    },
    {
      "inputs": [
        {
          "internalType": "address",
          "name": "_approved",
          "type": "address"
        },
        {
          "internalType": "uint256",
          "name": "_tokenId",
          "type": "uint256"
        }
      ],
      "name": "approve",
      "outputs": [],
      "stateMutability": "payable",
      "type": "function"
    },
    {
      "inputs": [
        {
          "internalType": "address",
          "name": "_owner",
          "type": "address"
        }
      ],
      "name": "balanceOf",
      "outputs": [
        {
          "internalType": "uint256",
          "name": "",
          "type": "uint256"
        }
      ],
      "stateMutability": "view",
      "type": "function"
    },
    {
      "inputs": [
        {
          "internalType": "uint256",
          "name": "kittyId1",
          "type": "uint256"
        },
        {
          "internalType": "uint256",
          "name": "kittyId2",
          "type": "uint256"
        }
      ],
      "name": "breed",
      "outputs": [],
      "stateMutability": "nonpayable",
      "type": "function"
    },
    {
      "inputs": [
        {
          "internalType": "uint256",
          "name": "_tokenId",
          "type": "uint256"
        }
      ],
      "name": "getApproved",
      "outputs": [
        {
          "internalType": "address",
          "name": "",
          "type": "address"
        }
      ],
      "stateMutability": "view",
      "type": "function"
    },
    {
      "inputs": [
        {
          "internalType": "address",
          "name": "_owner",
          "type": "address"
        },
        {
          "internalType": "address",
          "name": "_operator",
          "type": "address"
        }
      ],
      "name": "isApprovedForAll",
      "outputs": [
        {
          "internalType": "bool",
          "name": "",
          "type": "bool"
        }
      ],
      "stateMutability": "view",
      "type": "function"
    },
    {
      "inputs": [],
      "name": "mint",
      "outputs": [],
      "stateMutability": "nonpayable",
      "type": "function"
    },
    {
      "inputs": [],
      "name": "name",
      "outputs": [
        {
          "internalType": "string",
          "name": "",
          "type": "string"
        }
      ],
      "stateMutability": "view",
      "type": "function"
    },
    {
      "inputs": [],
      "name": "nextId",
      "outputs": [
        {
          "internalType": "uint256",
          "name": "",
          "type": "uint256"
        }
      ],
      "stateMutability": "view",
      "type": "function"
    },
    {
      "inputs": [
        {
          "internalType": "uint256",
          "name": "_tokenId",
          "type": "uint256"
        }
      ],
      "name": "ownerOf",
      "outputs": [
        {
          "internalType": "address",
          "name": "",
          "type": "address"
        }
      ],
      "stateMutability": "view",
      "type": "function"
    },
    {
      "inputs": [
        {
          "internalType": "uint256",
          "name": "_tokenId",
          "type": "uint256"
        }
      ],
      "name": "returnKitti",
      "outputs": [
        {
          "components": [
            {
              "internalType": "uint256",
              "name": "id",
              "type": "uint256"
            },
            {
              "internalType": "uint256",
              "name": "generation",
              "type": "uint256"
            },
            {
              "internalType": "uint256",
              "name": "geneA",
              "type": "uint256"
            },
            {
              "internalType": "uint256",
              "name": "geneB",
              "type": "uint256"
            }
          ],
          "internalType": "struct Cryptokitties.Kitti",
          "name": "",
          "type": "tuple"
        },
        {
          "internalType": "address",
          "name": "",
          "type": "address"
        },
        {
          "internalType": "string",
          "name": "",
          "type": "string"
        }
      ],
      "stateMutability": "view",
      "type": "function"
    },
    {
      "inputs": [
        {
          "internalType": "address",
          "name": "_from",
          "type": "address"
        },
        {
          "internalType": "address",
          "name": "_to",
          "type": "address"
        },
        {
          "internalType": "uint256",
          "name": "_tokenId",
          "type": "uint256"
        }
      ],
      "name": "safeTransferFrom",
      "outputs": [],
      "stateMutability": "payable",
      "type": "function"
    },
    {
      "inputs": [
        {
          "internalType": "address",
          "name": "_from",
          "type": "address"
        },
        {
          "internalType": "address",
          "name": "_to",
          "type": "address"
        },
        {
          "internalType": "uint256",
          "name": "_tokenId",
          "type": "uint256"
        },
        {
          "internalType": "bytes",
          "name": "data",
          "type": "bytes"
        }
      ],
      "name": "safeTransferFrom",
      "outputs": [],
      "stateMutability": "payable",
      "type": "function"
    },
    {
      "inputs": [
        {
          "internalType": "address",
          "name": "_operator",
          "type": "address"
        },
        {
          "internalType": "bool",
          "name": "_approved",
          "type": "bool"
        }
      ],
      "name": "setApprovalForAll",
      "outputs": [],
      "stateMutability": "nonpayable",
      "type": "function"
    },
    {
      "inputs": [],
      "name": "symbol",
      "outputs": [
        {
          "internalType": "string",
          "name": "",
          "type": "string"
        }
      ],
      "stateMutability": "view",
      "type": "function"
    },
    {
      "inputs": [],
      "name": "tokenURIBase",
      "outputs": [
        {
          "internalType": "string",
          "name": "",
          "type": "string"
        }
      ],
      "stateMutability": "view",
      "type": "function"
    },
    {
      "inputs": [
        {
          "internalType": "address",
          "name": "_from",
          "type": "address"
        },
        {
          "internalType": "address",
          "name": "_to",
          "type": "address"
        },
        {
          "internalType": "uint256",
          "name": "_tokenId",
          "type": "uint256"
        }
      ],
      "name": "transferFrom",
      "outputs": [],
      "stateMutability": "payable",
      "type": "function"
    }
  ],
  "bytecode": "0x60806040523480156200001157600080fd5b50604051620026af380380620026af833981810160405281019062000037919062000250565b82828282600590816200004b919062000554565b5081600690816200005d919062000554565b5080600790816200006f919062000554565b5050505033600a60006101000a81548173ffffffffffffffffffffffffffffffffffffffff021916908373ffffffffffffffffffffffffffffffffffffffff1602179055505050506200063b565b6000604051905090565b600080fd5b600080fd5b600080fd5b600080fd5b6000601f19601f8301169050919050565b7f4e487b7100000000000000000000000000000000000000000000000000000000600052604160045260246000fd5b6200012682620000db565b810181811067ffffffffffffffff82111715620001485762000147620000ec565b5b80604052505050565b60006200015d620000bd565b90506200016b82826200011b565b919050565b600067ffffffffffffffff8211156200018e576200018d620000ec565b5b6200019982620000db565b9050602081019050919050565b60005b83811015620001c6578082015181840152602081019050620001a9565b60008484015250505050565b6000620001e9620001e38462000170565b62000151565b905082815260208101848484011115620002085762000207620000d6565b5b62000215848285620001a6565b509392505050565b600082601f830112620002355762000234620000d1565b5b815162000247848260208601620001d2565b91505092915050565b6000806000606084860312156200026c576200026b620000c7565b5b600084015167ffffffffffffffff8111156200028d576200028c620000cc565b5b6200029b868287016200021d565b935050602084015167ffffffffffffffff811115620002bf57620002be620000cc565b5b620002cd868287016200021d565b925050604084015167ffffffffffffffff811115620002f157620002f0620000cc565b5b620002ff868287016200021d565b9150509250925092565b600081519050919050565b7f4e487b7100000000000000000000000000000000000000000000000000000000600052602260045260246000fd5b600060028204905060018216806200035c57607f821691505b60208210810362000372576200037162000314565b5b50919050565b60008190508160005260206000209050919050565b60006020601f8301049050919050565b600082821b905092915050565b600060088302620003dc7fffffffffffffffffffffffffffffffffffffffffffffffffffffffffffffffff826200039d565b620003e886836200039d565b95508019841693508086168417925050509392505050565b6000819050919050565b6000819050919050565b6000620004356200042f620004298462000400565b6200040a565b62000400565b9050919050565b6000819050919050565b620004518362000414565b6200046962000460826200043c565b848454620003aa565b825550505050565b600090565b6200048062000471565b6200048d81848462000446565b505050565b5b81811015620004b557620004a960008262000476565b60018101905062000493565b5050565b601f8211156200050457620004ce8162000378565b620004d9846200038d565b81016020851015620004e9578190505b62000501620004f8856200038d565b83018262000492565b50505b505050565b600082821c905092915050565b6000620005296000198460080262000509565b1980831691505092915050565b600062000544838362000516565b9150826002028217905092915050565b6200055f8262000309565b67ffffffffffffffff8111156200057b576200057a620000ec565b5b62000587825462000343565b62000594828285620004b9565b600060209050601f831160018114620005cc5760008415620005b7578287015190505b620005c3858262000536565b86555062000633565b601f198416620005dc8662000378565b60005b828110156200060657848901518255600182019150602085019450602081019050620005df565b8683101562000626578489015162000622601f89168262000516565b8355505b6001600288020188555050505b505050505050565b612064806200064b6000396000f3fe6080604052600436106100fe5760003560e01c80636352211e11610095578063b819ac9b11610064578063b819ac9b146102fa578063b88d4fde14610339578063d9ecad7b14610355578063e985e9c51461037e578063f851a440146103bb576100fe565b80636352211e1461022c57806370a082311461026957806395d89b41146102a6578063a22cb465146102d1576100fe565b806323b872dd116100d157806323b872dd1461019e578063261220a3146101ba57806342842e0e146101e557806361b8ce8c14610201576100fe565b806306fdde0314610103578063081812fc1461012e578063095ea7b31461016b5780631249c58b14610187575b600080fd5b34801561010f57600080fd5b506101186103e6565b604051610125919061152a565b60405180910390f35b34801561013a57600080fd5b506101556004803603810190610150919061158c565b610474565b60405161016291906115fa565b60405180910390f35b61018560048036038101906101809190611641565b6104b1565b005b34801561019357600080fd5b5061019c610609565b005b6101b860048036038101906101b39190611681565b6106a5565b005b3480156101c657600080fd5b506101cf6106b5565b6040516101dc919061152a565b60405180910390f35b6101ff60048036038101906101fa9190611681565b610743565b005b34801561020d57600080fd5b50610216610763565b60405161022391906116e3565b60405180910390f35b34801561023857600080fd5b50610253600480360381019061024e919061158c565b610769565b60405161026091906115fa565b60405180910390f35b34801561027557600080fd5b50610290600480360381019061028b91906116fe565b6107a6565b60405161029d91906116e3565b60405180910390f35b3480156102b257600080fd5b506102bb6107ee565b6040516102c8919061152a565b60405180910390f35b3480156102dd57600080fd5b506102f860048036038101906102f39190611763565b61087c565b005b34801561030657600080fd5b50610321600480360381019061031c919061158c565b610979565b60405161033093929190611807565b60405180910390f35b610353600480360381019061034e91906118aa565b610a72565b005b34801561036157600080fd5b5061037c60048036038101906103779190611932565b610ac9565b005b34801561038a57600080fd5b506103a560048036038101906103a09190611972565b610d2b565b6040516103b291906119c1565b60405180910390f35b3480156103c757600080fd5b506103d0610dbf565b6040516103dd91906115fa565b60405180910390f35b600580546103f390611a0b565b80601f016020809104026020016040519081016040528092919081815260200182805461041f90611a0b565b801561046c5780601f106104415761010080835404028352916020019161046c565b820191906000526020600020905b81548152906001019060200180831161044f57829003601f168201915b505050505081565b60006002600083815260200190815260200160002060009054906101000a900473ffffffffffffffffffffffffffffffffffffffff169050919050565b60006001600083815260200190815260200160002060009054906101000a900473ffffffffffffffffffffffffffffffffffffffff1690508073ffffffffffffffffffffffffffffffffffffffff163373ffffffffffffffffffffffffffffffffffffffff1614610557576040517f08c379a000000000000000000000000000000000000000000000000000000000815260040161054e90611a88565b60405180910390fd5b826002600084815260200190815260200160002060006101000a81548173ffffffffffffffffffffffffffffffffffffffff021916908373ffffffffffffffffffffffffffffffffffffffff160217905550818373ffffffffffffffffffffffffffffffffffffffff168273ffffffffffffffffffffffffffffffffffffffff167f8c5be1e5ebec7d5bd14f71427d1e84f3dd0314c0f7b2291e5b200ac8c7c3b92560405160405180910390a4505050565b604051806080016040528060095481526020016001815260200161062d600a610de5565b815260200161063c6008610de5565b8152506008600060095481526020019081526020016000206000820151816000015560208201518160010155604082015181600201556060820151816003015590505061068b60095433610e25565b6009600081548092919061069e90611ad7565b9190505550565b6106b0838383611013565b505050565b600780546106c290611a0b565b80601f01602080910402602001604051908101604052809291908181526020018280546106ee90611a0b565b801561073b5780601f106107105761010080835404028352916020019161073b565b820191906000526020600020905b81548152906001019060200180831161071e57829003601f168201915b505050505081565b61075e8383836040518060200160405280600081525061131b565b505050565b60095481565b60006001600083815260200190815260200160002060009054906101000a900473ffffffffffffffffffffffffffffffffffffffff169050919050565b60008060008373ffffffffffffffffffffffffffffffffffffffff1673ffffffffffffffffffffffffffffffffffffffff168152602001908152602001600020549050919050565b600680546107fb90611a0b565b80601f016020809104026020016040519081016040528092919081815260200182805461082790611a0b565b80156108745780601f1061084957610100808354040283529160200191610874565b820191906000526020600020905b81548152906001019060200180831161085757829003601f168201915b505050505081565b80600360003373ffffffffffffffffffffffffffffffffffffffff1673ffffffffffffffffffffffffffffffffffffffff16815260200190815260200160002060008473ffffffffffffffffffffffffffffffffffffffff1673ffffffffffffffffffffffffffffffffffffffff16815260200190815260200160002060006101000a81548160ff0219169083151502179055508173ffffffffffffffffffffffffffffffffffffffff163373ffffffffffffffffffffffffffffffffffffffff167f17307eab39ab6107e8899845ad3d59bd9653f200f220920489ca2b5937696c318360405161096d91906119c1565b60405180910390a35050565b610981611472565b60006060600860008581526020019081526020016000206109a185610769565b60078260405180608001604052908160008201548152602001600182015481526020016002820154815260200160038201548152505092508080546109e590611a0b565b80601f0160208091040260200160405190810160405280929190818152602001828054610a1190611a0b565b8015610a5e5780601f10610a3357610100808354040283529160200191610a5e565b820191906000526020600020905b815481529060010190602001808311610a4157829003601f168201915b505050505090509250925092509193909250565b610ac285858585858080601f016020809104026020016040519081016040528093929190818152602001838380828437600081840152601f19601f8201169050808301925050505050505061131b565b5050505050565b60095482108015610adb575060095481105b610b1a576040517f08c379a0000000000000000000000000000000000000000000000000000000008152600401610b1190611b6b565b60405180910390fd5b600060086000848152602001908152602001600020905060006008600084815260200190815260200160002090503373ffffffffffffffffffffffffffffffffffffffff16610b6885610769565b73ffffffffffffffffffffffffffffffffffffffff16148015610bbe57503373ffffffffffffffffffffffffffffffffffffffff16610ba684610769565b73ffffffffffffffffffffffffffffffffffffffff16145b610bfd576040517f08c379a0000000000000000000000000000000000000000000000000000000008152600401610bf490611bd7565b60405180910390fd5b60008160010154836001015403610c265760018360010154610c1f9190611bf7565b9050610c4b565b816001015483600101541115610c425782600101549050610c4a565b816001015490505b5b60006001610c596004610de5565b1115610c6b5783600201549050610c73565b826002015490505b60006001610c816004610de5565b1115610c935784600301549050610c9b565b836003015490505b604051806080016040528060095481526020018481526020018381526020018281525060086000600954815260200190815260200160002060008201518160000155602082015181600101556040820151816002015560608201518160030155905050610d0a60095433610e25565b60096000815480929190610d1d90611ad7565b919050555050505050505050565b6000600360008473ffffffffffffffffffffffffffffffffffffffff1673ffffffffffffffffffffffffffffffffffffffff16815260200190815260200160002060008373ffffffffffffffffffffffffffffffffffffffff1673ffffffffffffffffffffffffffffffffffffffff16815260200190815260200160002060009054906101000a900460ff16905092915050565b600a60009054906101000a900473ffffffffffffffffffffffffffffffffffffffff1681565b6000814244604051602001610dfb929190611c4c565b6040516020818303038152906040528051906020012060001c610e1e9190611ca7565b9050919050565b601f821115610e69576040517f08c379a0000000000000000000000000000000000000000000000000000000008152600401610e6090611d4a565b60405180910390fd5b600073ffffffffffffffffffffffffffffffffffffffff166001600084815260200190815260200160002060009054906101000a900473ffffffffffffffffffffffffffffffffffffffff1673ffffffffffffffffffffffffffffffffffffffff1614610f0b576040517f08c379a0000000000000000000000000000000000000000000000000000000008152600401610f0290611db6565b60405180910390fd5b806001600084815260200190815260200160002060006101000a81548173ffffffffffffffffffffffffffffffffffffffff021916908373ffffffffffffffffffffffffffffffffffffffff16021790555060016000808373ffffffffffffffffffffffffffffffffffffffff1673ffffffffffffffffffffffffffffffffffffffff1681526020019081526020016000206000828254610fac9190611bf7565b92505081905550818173ffffffffffffffffffffffffffffffffffffffff16600073ffffffffffffffffffffffffffffffffffffffff167fddf252ad1be2c89b69c2b068fc378daa952ba7f163c4a11628f55a4df523b3ef60405160405180910390a45050565b8060006001600083815260200190815260200160002060009054906101000a900473ffffffffffffffffffffffffffffffffffffffff1690503373ffffffffffffffffffffffffffffffffffffffff168173ffffffffffffffffffffffffffffffffffffffff1614806110e457503373ffffffffffffffffffffffffffffffffffffffff166002600084815260200190815260200160002060009054906101000a900473ffffffffffffffffffffffffffffffffffffffff1673ffffffffffffffffffffffffffffffffffffffff16145b8061117c575060011515600360008373ffffffffffffffffffffffffffffffffffffffff1673ffffffffffffffffffffffffffffffffffffffff16815260200190815260200160002060003373ffffffffffffffffffffffffffffffffffffffff1673ffffffffffffffffffffffffffffffffffffffff16815260200190815260200160002060009054906101000a900460ff161515145b6111bb576040517f08c379a00000000000000000000000000000000000000000000000000000000081526004016111b290611e22565b60405180910390fd5b60016000808773ffffffffffffffffffffffffffffffffffffffff1673ffffffffffffffffffffffffffffffffffffffff168152602001908152602001600020600082825461120a9190611e42565b9250508190555060016000808673ffffffffffffffffffffffffffffffffffffffff1673ffffffffffffffffffffffffffffffffffffffff16815260200190815260200160002060008282546112609190611bf7565b92505081905550836001600085815260200190815260200160002060006101000a81548173ffffffffffffffffffffffffffffffffffffffff021916908373ffffffffffffffffffffffffffffffffffffffff160217905550828473ffffffffffffffffffffffffffffffffffffffff168673ffffffffffffffffffffffffffffffffffffffff167fddf252ad1be2c89b69c2b068fc378daa952ba7f163c4a11628f55a4df523b3ef60405160405180910390a45050505050565b611326848484611013565b6113458373ffffffffffffffffffffffffffffffffffffffff1661145f565b156114595760008373ffffffffffffffffffffffffffffffffffffffff1663150b7a02338786866040518563ffffffff1660e01b815260040161138b9493929190611ecb565b6020604051808303816000875af11580156113aa573d6000803e3d6000fd5b505050506040513d601f19601f820116820180604052508101906113ce9190611f6f565b905063150b7a0260e01b7bffffffffffffffffffffffffffffffffffffffffffffffffffffffff1916817bffffffffffffffffffffffffffffffffffffffffffffffffffffffff191614611457576040517f08c379a000000000000000000000000000000000000000000000000000000000815260040161144e9061200e565b60405180910390fd5b505b50505050565b600080823b905060008111915050919050565b6040518060800160405280600081526020016000815260200160008152602001600081525090565b600081519050919050565b600082825260208201905092915050565b60005b838110156114d45780820151818401526020810190506114b9565b60008484015250505050565b6000601f19601f8301169050919050565b60006114fc8261149a565b61150681856114a5565b93506115168185602086016114b6565b61151f816114e0565b840191505092915050565b6000602082019050818103600083015261154481846114f1565b905092915050565b600080fd5b600080fd5b6000819050919050565b61156981611556565b811461157457600080fd5b50565b60008135905061158681611560565b92915050565b6000602082840312156115a2576115a161154c565b5b60006115b084828501611577565b91505092915050565b600073ffffffffffffffffffffffffffffffffffffffff82169050919050565b60006115e4826115b9565b9050919050565b6115f4816115d9565b82525050565b600060208201905061160f60008301846115eb565b92915050565b61161e816115d9565b811461162957600080fd5b50565b60008135905061163b81611615565b92915050565b600080604083850312156116585761165761154c565b5b60006116668582860161162c565b925050602061167785828601611577565b9150509250929050565b60008060006060848603121561169a5761169961154c565b5b60006116a88682870161162c565b93505060206116b98682870161162c565b92505060406116ca86828701611577565b9150509250925092565b6116dd81611556565b82525050565b60006020820190506116f860008301846116d4565b92915050565b6000602082840312156117145761171361154c565b5b60006117228482850161162c565b91505092915050565b60008115159050919050565b6117408161172b565b811461174b57600080fd5b50565b60008135905061175d81611737565b92915050565b6000806040838503121561177a5761177961154c565b5b60006117888582860161162c565b92505060206117998582860161174e565b9150509250929050565b6117ac81611556565b82525050565b6080820160008201516117c860008501826117a3565b5060208201516117db60208501826117a3565b5060408201516117ee60408501826117a3565b50606082015161180160608501826117a3565b50505050565b600060c08201905061181c60008301866117b2565b61182960808301856115eb565b81810360a083015261183b81846114f1565b9050949350505050565b600080fd5b600080fd5b600080fd5b60008083601f84011261186a57611869611845565b5b8235905067ffffffffffffffff8111156118875761188661184a565b5b6020830191508360018202830111156118a3576118a261184f565b5b9250929050565b6000806000806000608086880312156118c6576118c561154c565b5b60006118d48882890161162c565b95505060206118e58882890161162c565b94505060406118f688828901611577565b935050606086013567ffffffffffffffff81111561191757611916611551565b5b61192388828901611854565b92509250509295509295909350565b600080604083850312156119495761194861154c565b5b600061195785828601611577565b925050602061196885828601611577565b9150509250929050565b600080604083850312156119895761198861154c565b5b60006119978582860161162c565b92505060206119a88582860161162c565b9150509250929050565b6119bb8161172b565b82525050565b60006020820190506119d660008301846119b2565b92915050565b7f4e487b7100000000000000000000000000000000000000000000000000000000600052602260045260246000fd5b60006002820490506001821680611a2357607f821691505b602082108103611a3657611a356119dc565b5b50919050565b7f4e6f7420617574686f72697a6564000000000000000000000000000000000000600082015250565b6000611a72600e836114a5565b9150611a7d82611a3c565b602082019050919050565b60006020820190508181036000830152611aa181611a65565b9050919050565b7f4e487b7100000000000000000000000000000000000000000000000000000000600052601160045260246000fd5b6000611ae282611556565b91507fffffffffffffffffffffffffffffffffffffffffffffffffffffffffffffffff8203611b1457611b13611aa8565b5b600182019050919050565b7f5468652074776f206b697474796573206d757374206265206578697374000000600082015250565b6000611b55601d836114a5565b9150611b6082611b1f565b602082019050919050565b60006020820190508181036000830152611b8481611b48565b9050919050565b7f596f7520617265206e6f74206f776e6572206f662074776f206b697474796573600082015250565b6000611bc16020836114a5565b9150611bcc82611b8b565b602082019050919050565b60006020820190508181036000830152611bf081611bb4565b9050919050565b6000611c0282611556565b9150611c0d83611556565b9250828201905080821115611c2557611c24611aa8565b5b92915050565b6000819050919050565b611c46611c4182611556565b611c2b565b82525050565b6000611c588285611c35565b602082019150611c688284611c35565b6020820191508190509392505050565b7f4e487b7100000000000000000000000000000000000000000000000000000000600052601260045260246000fd5b6000611cb282611556565b9150611cbd83611556565b925082611ccd57611ccc611c78565b5b828206905092915050565b7f4d617820737570706c7920726561636865642e2e2e2043616e6e6f74206d696e60008201527f742f627265656420616e796d6f72652e2e000000000000000000000000000000602082015250565b6000611d346031836114a5565b9150611d3f82611cd8565b604082019050919050565b60006020820190508181036000830152611d6381611d27565b9050919050565b7f546f6b656e20616c726561647920657869737473000000000000000000000000600082015250565b6000611da06014836114a5565b9150611dab82611d6a565b602082019050919050565b60006020820190508181036000830152611dcf81611d93565b9050919050565b7f5472616e73666572206e6f7420617574686f72697a6564000000000000000000600082015250565b6000611e0c6017836114a5565b9150611e1782611dd6565b602082019050919050565b60006020820190508181036000830152611e3b81611dff565b9050919050565b6000611e4d82611556565b9150611e5883611556565b9250828203905081811115611e7057611e6f611aa8565b5b92915050565b600081519050919050565b600082825260208201905092915050565b6000611e9d82611e76565b611ea78185611e81565b9350611eb78185602086016114b6565b611ec0816114e0565b840191505092915050565b6000608082019050611ee060008301876115eb565b611eed60208301866115eb565b611efa60408301856116d4565b8181036060830152611f0c8184611e92565b905095945050505050565b60007fffffffff0000000000000000000000000000000000000000000000000000000082169050919050565b611f4c81611f17565b8114611f5757600080fd5b50565b600081519050611f6981611f43565b92915050565b600060208284031215611f8557611f8461154c565b5b6000611f9384828501611f5a565b91505092915050565b7f726563697069656e742053432063616e6e6f742068616e646c6520455243373260008201527f3120746f6b656e73000000000000000000000000000000000000000000000000602082015250565b6000611ff86028836114a5565b915061200382611f9c565b604082019050919050565b6000602082019050818103600083015261202781611feb565b905091905056fea2646970667358221220390ee1045fd4d7653e4b7ea64f8afeb2c0ecee0988dae26daa680795e3294ad864736f6c63430008110033",
  "linkReferences": {},
  "deployedLinkReferences": {}
}