{
  "_format": "hh-sol-artifact-1",
  "contractName": "ERC721Token",
  "sourceName": "contracts/ERC721Token.sol",
  "abi": [
    {
      "inputs": [
        {
          "internalType": "string",
          "name": "_name",
          "type": "string"
        },
        {
          "internalType": "string",
          "name": "_symbol",
          "type": "string"
        },
        {
          "internalType": "string",
          "name": "_tokenURIBase",
          "type": "string"
        }
      ],
      "stateMutability": "nonpayable",
      "type": "constructor"
    },
    {
      "anonymous": false,
      "inputs": [
        {
          "indexed": true,
          "internalType": "address",
          "name": "_owner",
          "type": "address"
        },
        {
          "indexed": true,
          "internalType": "address",
          "name": "_approved",
          "type": "address"
        },
        {
          "indexed": true,
          "internalType": "uint256",
          "name": "_tokenId",
          "type": "uint256"
        }
      ],
      "name": "Approval",
      "type": "event"
    },
    {
      "anonymous": false,
      "inputs": [
        {
          "indexed": true,
          "internalType": "address",
          "name": "_owner",
          "type": "address"
        },
        {
          "indexed": true,
          "internalType": "address",
          "name": "_operator",
          "type": "address"
        },
        {
          "indexed": false,
          "internalType": "bool",
          "name": "_approved",
          "type": "bool"
        }
      ],
      "name": "ApprovalForAll",
      "type": "event"
    },
    {
      "anonymous": false,
      "inputs": [
        {
          "indexed": true,
          "internalType": "address",
          "name": "_from",
          "type": "address"
        },
        {
          "indexed": true,
          "internalType": "address",
          "name": "_to",
          "type": "address"
        },
        {
          "indexed": true,
          "internalType": "uint256",
          "name": "_tokenId",
          "type": "uint256"
        }
      ],
      "name": "Transfer",
      "type": "event"
    },
    {
      "inputs": [
        {
          "internalType": "address",
          "name": "_approved",
          "type": "address"
        },
        {
          "internalType": "uint256",
          "name": "_tokenId",
          "type": "uint256"
        }
      ],
      "name": "approve",
      "outputs": [],
      "stateMutability": "payable",
      "type": "function"
    },
    {
      "inputs": [
        {
          "internalType": "address",
          "name": "_owner",
          "type": "address"
        }
      ],
      "name": "balanceOf",
      "outputs": [
        {
          "internalType": "uint256",
          "name": "",
          "type": "uint256"
        }
      ],
      "stateMutability": "view",
      "type": "function"
    },
    {
      "inputs": [
        {
          "internalType": "uint256",
          "name": "_tokenId",
          "type": "uint256"
        }
      ],
      "name": "getApproved",
      "outputs": [
        {
          "internalType": "address",
          "name": "",
          "type": "address"
        }
      ],
      "stateMutability": "view",
      "type": "function"
    },
    {
      "inputs": [
        {
          "internalType": "address",
          "name": "_owner",
          "type": "address"
        },
        {
          "internalType": "address",
          "name": "_operator",
          "type": "address"
        }
      ],
      "name": "isApprovedForAll",
      "outputs": [
        {
          "internalType": "bool",
          "name": "",
          "type": "bool"
        }
      ],
      "stateMutability": "view",
      "type": "function"
    },
    {
      "inputs": [],
      "name": "name",
      "outputs": [
        {
          "internalType": "string",
          "name": "",
          "type": "string"
        }
      ],
      "stateMutability": "view",
      "type": "function"
    },
    {
      "inputs": [
        {
          "internalType": "uint256",
          "name": "_tokenId",
          "type": "uint256"
        }
      ],
      "name": "ownerOf",
      "outputs": [
        {
          "internalType": "address",
          "name": "",
          "type": "address"
        }
      ],
      "stateMutability": "view",
      "type": "function"
    },
    {
      "inputs": [
        {
          "internalType": "address",
          "name": "_from",
          "type": "address"
        },
        {
          "internalType": "address",
          "name": "_to",
          "type": "address"
        },
        {
          "internalType": "uint256",
          "name": "_tokenId",
          "type": "uint256"
        }
      ],
      "name": "safeTransferFrom",
      "outputs": [],
      "stateMutability": "payable",
      "type": "function"
    },
    {
      "inputs": [
        {
          "internalType": "address",
          "name": "_from",
          "type": "address"
        },
        {
          "internalType": "address",
          "name": "_to",
          "type": "address"
        },
        {
          "internalType": "uint256",
          "name": "_tokenId",
          "type": "uint256"
        },
        {
          "internalType": "bytes",
          "name": "data",
          "type": "bytes"
        }
      ],
      "name": "safeTransferFrom",
      "outputs": [],
      "stateMutability": "payable",
      "type": "function"
    },
    {
      "inputs": [
        {
          "internalType": "address",
          "name": "_operator",
          "type": "address"
        },
        {
          "internalType": "bool",
          "name": "_approved",
          "type": "bool"
        }
      ],
      "name": "setApprovalForAll",
      "outputs": [],
      "stateMutability": "nonpayable",
      "type": "function"
    },
    {
      "inputs": [],
      "name": "symbol",
      "outputs": [
        {
          "internalType": "string",
          "name": "",
          "type": "string"
        }
      ],
      "stateMutability": "view",
      "type": "function"
    },
    {
      "inputs": [],
      "name": "tokenURIBase",
      "outputs": [
        {
          "internalType": "string",
          "name": "",
          "type": "string"
        }
      ],
      "stateMutability": "view",
      "type": "function"
    },
    {
      "inputs": [
        {
          "internalType": "address",
          "name": "_from",
          "type": "address"
        },
        {
          "internalType": "address",
          "name": "_to",
          "type": "address"
        },
        {
          "internalType": "uint256",
          "name": "_tokenId",
          "type": "uint256"
        }
      ],
      "name": "transferFrom",
      "outputs": [],
      "stateMutability": "payable",
      "type": "function"
    }
  ],
  "bytecode": "0x60806040523480156200001157600080fd5b5060405162001b1638038062001b16833981810160405281019062000037919062000209565b82600590816200004891906200050d565b5081600690816200005a91906200050d565b5080600790816200006c91906200050d565b50505050620005f4565b6000604051905090565b600080fd5b600080fd5b600080fd5b600080fd5b6000601f19601f8301169050919050565b7f4e487b7100000000000000000000000000000000000000000000000000000000600052604160045260246000fd5b620000df8262000094565b810181811067ffffffffffffffff82111715620001015762000100620000a5565b5b80604052505050565b60006200011662000076565b9050620001248282620000d4565b919050565b600067ffffffffffffffff821115620001475762000146620000a5565b5b620001528262000094565b9050602081019050919050565b60005b838110156200017f57808201518184015260208101905062000162565b60008484015250505050565b6000620001a26200019c8462000129565b6200010a565b905082815260208101848484011115620001c157620001c06200008f565b5b620001ce8482856200015f565b509392505050565b600082601f830112620001ee57620001ed6200008a565b5b8151620002008482602086016200018b565b91505092915050565b60008060006060848603121562000225576200022462000080565b5b600084015167ffffffffffffffff81111562000246576200024562000085565b5b6200025486828701620001d6565b935050602084015167ffffffffffffffff81111562000278576200027762000085565b5b6200028686828701620001d6565b925050604084015167ffffffffffffffff811115620002aa57620002a962000085565b5b620002b886828701620001d6565b9150509250925092565b600081519050919050565b7f4e487b7100000000000000000000000000000000000000000000000000000000600052602260045260246000fd5b600060028204905060018216806200031557607f821691505b6020821081036200032b576200032a620002cd565b5b50919050565b60008190508160005260206000209050919050565b60006020601f8301049050919050565b600082821b905092915050565b600060088302620003957fffffffffffffffffffffffffffffffffffffffffffffffffffffffffffffffff8262000356565b620003a1868362000356565b95508019841693508086168417925050509392505050565b6000819050919050565b6000819050919050565b6000620003ee620003e8620003e284620003b9565b620003c3565b620003b9565b9050919050565b6000819050919050565b6200040a83620003cd565b620004226200041982620003f5565b84845462000363565b825550505050565b600090565b620004396200042a565b62000446818484620003ff565b505050565b5b818110156200046e57620004626000826200042f565b6001810190506200044c565b5050565b601f821115620004bd57620004878162000331565b620004928462000346565b81016020851015620004a2578190505b620004ba620004b18562000346565b8301826200044b565b50505b505050565b600082821c905092915050565b6000620004e260001984600802620004c2565b1980831691505092915050565b6000620004fd8383620004cf565b9150826002028217905092915050565b6200051882620002c2565b67ffffffffffffffff811115620005345762000533620000a5565b5b620005408254620002fc565b6200054d82828562000472565b600060209050601f83116001811462000585576000841562000570578287015190505b6200057c8582620004ef565b865550620005ec565b601f198416620005958662000331565b60005b82811015620005bf5784890151825560018201915060208501945060208101905062000598565b86831015620005df5784890151620005db601f891682620004cf565b8355505b6001600288020188555050505b505050505050565b61151280620006046000396000f3fe6080604052600436106100a75760003560e01c80636352211e116100645780636352211e1461019357806370a08231146101d057806395d89b411461020d578063a22cb46514610238578063b88d4fde14610261578063e985e9c51461027d576100a7565b806306fdde03146100ac578063081812fc146100d7578063095ea7b31461011457806323b872dd14610130578063261220a31461014c57806342842e0e14610177575b600080fd5b3480156100b857600080fd5b506100c16102ba565b6040516100ce9190610d85565b60405180910390f35b3480156100e357600080fd5b506100fe60048036038101906100f99190610de7565b610348565b60405161010b9190610e55565b60405180910390f35b61012e60048036038101906101299190610e9c565b610385565b005b61014a60048036038101906101459190610edc565b6104dd565b005b34801561015857600080fd5b506101616104ed565b60405161016e9190610d85565b60405180910390f35b610191600480360381019061018c9190610edc565b61057b565b005b34801561019f57600080fd5b506101ba60048036038101906101b59190610de7565b61059b565b6040516101c79190610e55565b60405180910390f35b3480156101dc57600080fd5b506101f760048036038101906101f29190610f2f565b6105d8565b6040516102049190610f6b565b60405180910390f35b34801561021957600080fd5b50610222610620565b60405161022f9190610d85565b60405180910390f35b34801561024457600080fd5b5061025f600480360381019061025a9190610fbe565b6106ae565b005b61027b60048036038101906102769190611063565b6107ab565b005b34801561028957600080fd5b506102a4600480360381019061029f91906110eb565b610802565b6040516102b1919061113a565b60405180910390f35b600580546102c790611184565b80601f01602080910402602001604051908101604052809291908181526020018280546102f390611184565b80156103405780601f1061031557610100808354040283529160200191610340565b820191906000526020600020905b81548152906001019060200180831161032357829003601f168201915b505050505081565b60006002600083815260200190815260200160002060009054906101000a900473ffffffffffffffffffffffffffffffffffffffff169050919050565b60006001600083815260200190815260200160002060009054906101000a900473ffffffffffffffffffffffffffffffffffffffff1690508073ffffffffffffffffffffffffffffffffffffffff163373ffffffffffffffffffffffffffffffffffffffff161461042b576040517f08c379a000000000000000000000000000000000000000000000000000000000815260040161042290611201565b60405180910390fd5b826002600084815260200190815260200160002060006101000a81548173ffffffffffffffffffffffffffffffffffffffff021916908373ffffffffffffffffffffffffffffffffffffffff160217905550818373ffffffffffffffffffffffffffffffffffffffff168273ffffffffffffffffffffffffffffffffffffffff167f8c5be1e5ebec7d5bd14f71427d1e84f3dd0314c0f7b2291e5b200ac8c7c3b92560405160405180910390a4505050565b6104e8838383610896565b505050565b600780546104fa90611184565b80601f016020809104026020016040519081016040528092919081815260200182805461052690611184565b80156105735780601f1061054857610100808354040283529160200191610573565b820191906000526020600020905b81548152906001019060200180831161055657829003601f168201915b505050505081565b61059683838360405180602001604052806000815250610b9e565b505050565b60006001600083815260200190815260200160002060009054906101000a900473ffffffffffffffffffffffffffffffffffffffff169050919050565b60008060008373ffffffffffffffffffffffffffffffffffffffff1673ffffffffffffffffffffffffffffffffffffffff168152602001908152602001600020549050919050565b6006805461062d90611184565b80601f016020809104026020016040519081016040528092919081815260200182805461065990611184565b80156106a65780601f1061067b576101008083540402835291602001916106a6565b820191906000526020600020905b81548152906001019060200180831161068957829003601f168201915b505050505081565b80600360003373ffffffffffffffffffffffffffffffffffffffff1673ffffffffffffffffffffffffffffffffffffffff16815260200190815260200160002060008473ffffffffffffffffffffffffffffffffffffffff1673ffffffffffffffffffffffffffffffffffffffff16815260200190815260200160002060006101000a81548160ff0219169083151502179055508173ffffffffffffffffffffffffffffffffffffffff163373ffffffffffffffffffffffffffffffffffffffff167f17307eab39ab6107e8899845ad3d59bd9653f200f220920489ca2b5937696c318360405161079f919061113a565b60405180910390a35050565b6107fb85858585858080601f016020809104026020016040519081016040528093929190818152602001838380828437600081840152601f19601f82011690508083019250505050505050610b9e565b5050505050565b6000600360008473ffffffffffffffffffffffffffffffffffffffff1673ffffffffffffffffffffffffffffffffffffffff16815260200190815260200160002060008373ffffffffffffffffffffffffffffffffffffffff1673ffffffffffffffffffffffffffffffffffffffff16815260200190815260200160002060009054906101000a900460ff16905092915050565b8060006001600083815260200190815260200160002060009054906101000a900473ffffffffffffffffffffffffffffffffffffffff1690503373ffffffffffffffffffffffffffffffffffffffff168173ffffffffffffffffffffffffffffffffffffffff16148061096757503373ffffffffffffffffffffffffffffffffffffffff166002600084815260200190815260200160002060009054906101000a900473ffffffffffffffffffffffffffffffffffffffff1673ffffffffffffffffffffffffffffffffffffffff16145b806109ff575060011515600360008373ffffffffffffffffffffffffffffffffffffffff1673ffffffffffffffffffffffffffffffffffffffff16815260200190815260200160002060003373ffffffffffffffffffffffffffffffffffffffff1673ffffffffffffffffffffffffffffffffffffffff16815260200190815260200160002060009054906101000a900460ff161515145b610a3e576040517f08c379a0000000000000000000000000000000000000000000000000000000008152600401610a359061126d565b60405180910390fd5b60016000808773ffffffffffffffffffffffffffffffffffffffff1673ffffffffffffffffffffffffffffffffffffffff1681526020019081526020016000206000828254610a8d91906112bc565b9250508190555060016000808673ffffffffffffffffffffffffffffffffffffffff1673ffffffffffffffffffffffffffffffffffffffff1681526020019081526020016000206000828254610ae391906112f0565b92505081905550836001600085815260200190815260200160002060006101000a81548173ffffffffffffffffffffffffffffffffffffffff021916908373ffffffffffffffffffffffffffffffffffffffff160217905550828473ffffffffffffffffffffffffffffffffffffffff168673ffffffffffffffffffffffffffffffffffffffff167fddf252ad1be2c89b69c2b068fc378daa952ba7f163c4a11628f55a4df523b3ef60405160405180910390a45050505050565b610ba9848484610896565b610bc88373ffffffffffffffffffffffffffffffffffffffff16610ce2565b15610cdc5760008373ffffffffffffffffffffffffffffffffffffffff1663150b7a02338786866040518563ffffffff1660e01b8152600401610c0e9493929190611379565b6020604051808303816000875af1158015610c2d573d6000803e3d6000fd5b505050506040513d601f19601f82011682018060405250810190610c51919061141d565b905063150b7a0260e01b7bffffffffffffffffffffffffffffffffffffffffffffffffffffffff1916817bffffffffffffffffffffffffffffffffffffffffffffffffffffffff191614610cda576040517f08c379a0000000000000000000000000000000000000000000000000000000008152600401610cd1906114bc565b60405180910390fd5b505b50505050565b600080823b905060008111915050919050565b600081519050919050565b600082825260208201905092915050565b60005b83811015610d2f578082015181840152602081019050610d14565b60008484015250505050565b6000601f19601f8301169050919050565b6000610d5782610cf5565b610d618185610d00565b9350610d71818560208601610d11565b610d7a81610d3b565b840191505092915050565b60006020820190508181036000830152610d9f8184610d4c565b905092915050565b600080fd5b600080fd5b6000819050919050565b610dc481610db1565b8114610dcf57600080fd5b50565b600081359050610de181610dbb565b92915050565b600060208284031215610dfd57610dfc610da7565b5b6000610e0b84828501610dd2565b91505092915050565b600073ffffffffffffffffffffffffffffffffffffffff82169050919050565b6000610e3f82610e14565b9050919050565b610e4f81610e34565b82525050565b6000602082019050610e6a6000830184610e46565b92915050565b610e7981610e34565b8114610e8457600080fd5b50565b600081359050610e9681610e70565b92915050565b60008060408385031215610eb357610eb2610da7565b5b6000610ec185828601610e87565b9250506020610ed285828601610dd2565b9150509250929050565b600080600060608486031215610ef557610ef4610da7565b5b6000610f0386828701610e87565b9350506020610f1486828701610e87565b9250506040610f2586828701610dd2565b9150509250925092565b600060208284031215610f4557610f44610da7565b5b6000610f5384828501610e87565b91505092915050565b610f6581610db1565b82525050565b6000602082019050610f806000830184610f5c565b92915050565b60008115159050919050565b610f9b81610f86565b8114610fa657600080fd5b50565b600081359050610fb881610f92565b92915050565b60008060408385031215610fd557610fd4610da7565b5b6000610fe385828601610e87565b9250506020610ff485828601610fa9565b9150509250929050565b600080fd5b600080fd5b600080fd5b60008083601f84011261102357611022610ffe565b5b8235905067ffffffffffffffff8111156110405761103f611003565b5b60208301915083600182028301111561105c5761105b611008565b5b9250929050565b60008060008060006080868803121561107f5761107e610da7565b5b600061108d88828901610e87565b955050602061109e88828901610e87565b94505060406110af88828901610dd2565b935050606086013567ffffffffffffffff8111156110d0576110cf610dac565b5b6110dc8882890161100d565b92509250509295509295909350565b6000806040838503121561110257611101610da7565b5b600061111085828601610e87565b925050602061112185828601610e87565b9150509250929050565b61113481610f86565b82525050565b600060208201905061114f600083018461112b565b92915050565b7f4e487b7100000000000000000000000000000000000000000000000000000000600052602260045260246000fd5b6000600282049050600182168061119c57607f821691505b6020821081036111af576111ae611155565b5b50919050565b7f4e6f7420617574686f72697a6564000000000000000000000000000000000000600082015250565b60006111eb600e83610d00565b91506111f6826111b5565b602082019050919050565b6000602082019050818103600083015261121a816111de565b9050919050565b7f5472616e73666572206e6f7420617574686f72697a6564000000000000000000600082015250565b6000611257601783610d00565b915061126282611221565b602082019050919050565b600060208201905081810360008301526112868161124a565b9050919050565b7f4e487b7100000000000000000000000000000000000000000000000000000000600052601160045260246000fd5b60006112c782610db1565b91506112d283610db1565b92508282039050818111156112ea576112e961128d565b5b92915050565b60006112fb82610db1565b915061130683610db1565b925082820190508082111561131e5761131d61128d565b5b92915050565b600081519050919050565b600082825260208201905092915050565b600061134b82611324565b611355818561132f565b9350611365818560208601610d11565b61136e81610d3b565b840191505092915050565b600060808201905061138e6000830187610e46565b61139b6020830186610e46565b6113a86040830185610f5c565b81810360608301526113ba8184611340565b905095945050505050565b60007fffffffff0000000000000000000000000000000000000000000000000000000082169050919050565b6113fa816113c5565b811461140557600080fd5b50565b600081519050611417816113f1565b92915050565b60006020828403121561143357611432610da7565b5b600061144184828501611408565b91505092915050565b7f726563697069656e742053432063616e6e6f742068616e646c6520455243373260008201527f3120746f6b656e73000000000000000000000000000000000000000000000000602082015250565b60006114a6602883610d00565b91506114b18261144a565b604082019050919050565b600060208201905081810360008301526114d581611499565b905091905056fea26469706673582212205b01d2e37daa4e605cc191e02d885a4c559056026a9eb68ef8273ed1665b189764736f6c63430008110033",
  "linkReferences": {},
  "deployedLinkReferences": {}
}